{
  "contractName": "MintFactory",
  "abi": [
    {
      "inputs": [],
      "stateMutability": "nonpayable",
      "type": "constructor"
    },
    {
      "inputs": [],
      "name": "factoryOwner",
      "outputs": [
        {
          "internalType": "address",
          "name": "",
          "type": "address"
        }
      ],
      "stateMutability": "view",
      "type": "function",
      "constant": true
    },
    {
      "inputs": [
        {
          "internalType": "address",
          "name": "token",
          "type": "address"
        },
        {
          "internalType": "address",
          "name": "tokenSource",
          "type": "address"
        },
        {
          "internalType": "uint256",
          "name": "mintPrice",
          "type": "uint256"
        }
      ],
      "name": "createNewMint",
      "outputs": [
        {
          "internalType": "address",
          "name": "",
          "type": "address"
        }
      ],
      "stateMutability": "nonpayable",
      "type": "function"
    },
    {
      "inputs": [
        {
          "internalType": "address",
          "name": "tokenAddr",
          "type": "address"
        }
      ],
      "name": "getMintAddress",
      "outputs": [
        {
          "internalType": "address",
          "name": "",
          "type": "address"
        }
      ],
      "stateMutability": "view",
      "type": "function",
      "constant": true
    },
    {
      "inputs": [
        {
          "internalType": "address",
          "name": "newOwner",
          "type": "address"
        }
      ],
      "name": "transferFactory",
      "outputs": [],
      "stateMutability": "nonpayable",
      "type": "function"
    }
  ],
  "bytecode": "0x608060405234801561001057600080fd5b50336000806101000a81548173ffffffffffffffffffffffffffffffffffffffff021916908373ffffffffffffffffffffffffffffffffffffffff1602179055506126e8806100606000396000f3fe608060405234801561001057600080fd5b506004361061004c5760003560e01c80634273601c1461005157806389be95d51461006f578063a859fd031461009f578063a995e768146100bb575b600080fd5b6100596100eb565b6040516100669190610450565b60405180910390f35b6100896004803603810190610084919061049c565b61010f565b6040516100969190610450565b60405180910390f35b6100b960048036038101906100b4919061049c565b610178565b005b6100d560048036038101906100d091906104ff565b610249565b6040516100e29190610450565b60405180910390f35b60008054906101000a900473ffffffffffffffffffffffffffffffffffffffff1681565b6000600160008373ffffffffffffffffffffffffffffffffffffffff1673ffffffffffffffffffffffffffffffffffffffff16815260200190815260200160002060009054906101000a900473ffffffffffffffffffffffffffffffffffffffff169050919050565b60008054906101000a900473ffffffffffffffffffffffffffffffffffffffff1673ffffffffffffffffffffffffffffffffffffffff163373ffffffffffffffffffffffffffffffffffffffff1614610206576040517f08c379a00000000000000000000000000000000000000000000000000000000081526004016101fd906105af565b60405180910390fd5b806000806101000a81548173ffffffffffffffffffffffffffffffffffffffff021916908373ffffffffffffffffffffffffffffffffffffffff16021790555050565b60008073ffffffffffffffffffffffffffffffffffffffff16600160008673ffffffffffffffffffffffffffffffffffffffff1673ffffffffffffffffffffffffffffffffffffffff16815260200190815260200160002060009054906101000a900473ffffffffffffffffffffffffffffffffffffffff1673ffffffffffffffffffffffffffffffffffffffff1614610318576040517f08c379a000000000000000000000000000000000000000000000000000000000815260040161030f90610641565b60405180910390fd5b60003360008054906101000a900473ffffffffffffffffffffffffffffffffffffffff1684878760405161034b90610401565b610359959493929190610670565b604051809103906000f080158015610375573d6000803e3d6000fd5b50905080600160008773ffffffffffffffffffffffffffffffffffffffff1673ffffffffffffffffffffffffffffffffffffffff16815260200190815260200160002060006101000a81548173ffffffffffffffffffffffffffffffffffffffff021916908373ffffffffffffffffffffffffffffffffffffffff160217905550809150509392505050565b611fef80620006c483390190565b600073ffffffffffffffffffffffffffffffffffffffff82169050919050565b600061043a8261040f565b9050919050565b61044a8161042f565b82525050565b60006020820190506104656000830184610441565b92915050565b600080fd5b6104798161042f565b811461048457600080fd5b50565b60008135905061049681610470565b92915050565b6000602082840312156104b2576104b161046b565b5b60006104c084828501610487565b91505092915050565b6000819050919050565b6104dc816104c9565b81146104e757600080fd5b50565b6000813590506104f9816104d3565b92915050565b6000806000606084860312156105185761051761046b565b5b600061052686828701610487565b935050602061053786828701610487565b9250506040610548868287016104ea565b9150509250925092565b600082825260208201905092915050565b7f4e6f7420417574686f72697a6564000000000000000000000000000000000000600082015250565b6000610599600e83610552565b91506105a482610563565b602082019050919050565b600060208201905081810360008301526105c88161058c565b9050919050565b7f63616e6e6f742063726561746520616e6f74686572206d696e7420666f72207460008201527f68697320746f6b656e0000000000000000000000000000000000000000000000602082015250565b600061062b602983610552565b9150610636826105cf565b604082019050919050565b6000602082019050818103600083015261065a8161061e565b9050919050565b61066a816104c9565b82525050565b600060a0820190506106856000830188610441565b6106926020830187610441565b61069f6040830186610661565b6106ac6060830185610441565b6106b96080830184610441565b969550505050505056fe608060405261019060055560006006556000600760006101000a81548160ff0219169083151502179055503480156200003757600080fd5b5060405162001fef38038062001fef83398181016040528101906200005d919062000217565b84600160006101000a81548173ffffffffffffffffffffffffffffffffffffffff021916908373ffffffffffffffffffffffffffffffffffffffff16021790555083600260006101000a81548173ffffffffffffffffffffffffffffffffffffffff021916908373ffffffffffffffffffffffffffffffffffffffff16021790555082600481905550816000806101000a81548173ffffffffffffffffffffffffffffffffffffffff021916908373ffffffffffffffffffffffffffffffffffffffff16021790555080600360006101000a81548173ffffffffffffffffffffffffffffffffffffffff021916908373ffffffffffffffffffffffffffffffffffffffff16021790555050505050506200029f565b600080fd5b600073ffffffffffffffffffffffffffffffffffffffff82169050919050565b6000620001a48262000177565b9050919050565b620001b68162000197565b8114620001c257600080fd5b50565b600081519050620001d681620001ab565b92915050565b6000819050919050565b620001f181620001dc565b8114620001fd57600080fd5b50565b6000815190506200021181620001e6565b92915050565b600080600080600060a0868803121562000236576200023562000172565b5b60006200024688828901620001c5565b95505060206200025988828901620001c5565b94505060406200026c8882890162000200565b93505060606200027f88828901620001c5565b92505060806200029288828901620001c5565b9150509295509295909350565b611d4080620002af6000396000f3fe6080604052600436106101095760003560e01c80638cec13b811610095578063a0712d6811610064578063a0712d6814610345578063a13a58ab14610361578063ddca3f431461038a578063e5327094146103b5578063f8974de0146103f257610109565b80638cec13b81461029d5780638d6cc56d146102c85780638da5cb5b146102f15780639012c4a81461031c57610109565b80635c975abb116100dc5780635c975abb146101ca57806362810c81146101f55780636817c76c1461021e57806380a9f28e146102495780638393530f1461027457610109565b8063164e68de1461010e578063320113cd1461013757806346a0f31c14610162578063570ca7351461019f575b600080fd5b34801561011a57600080fd5b50610135600480360381019061013091906111cd565b61041b565b005b34801561014357600080fd5b5061014c6105aa565b6040516101599190611213565b60405180910390f35b34801561016e57600080fd5b506101896004803603810190610184919061125a565b6105b0565b6040516101969190611213565b60405180910390f35b3480156101ab57600080fd5b506101b46105d4565b6040516101c19190611296565b60405180910390f35b3480156101d657600080fd5b506101df6105fa565b6040516101ec91906112cc565b60405180910390f35b34801561020157600080fd5b5061021c600480360381019061021791906111cd565b61060d565b005b34801561022a57600080fd5b506102336107b0565b6040516102409190611213565b60405180910390f35b34801561025557600080fd5b5061025e6107b6565b60405161026b91906112cc565b60405180910390f35b34801561028057600080fd5b5061029b600480360381019061029691906111cd565b6107c9565b005b3480156102a957600080fd5b506102b261089d565b6040516102bf9190611296565b60405180910390f35b3480156102d457600080fd5b506102ef60048036038101906102ea919061125a565b6108c3565b005b3480156102fd57600080fd5b5061030661095d565b6040516103139190611296565b60405180910390f35b34801561032857600080fd5b50610343600480360381019061033e919061125a565b610983565b005b61035f600480360381019061035a919061125a565b610a1d565b005b34801561036d57600080fd5b5061038860048036038101906103839190611440565b610e15565b005b34801561039657600080fd5b5061039f611026565b6040516103ac9190611213565b60405180910390f35b3480156103c157600080fd5b506103dc60048036038101906103d7919061125a565b61102c565b6040516103e99190611213565b60405180910390f35b3480156103fe57600080fd5b50610419600480360381019061041491906114e4565b611044565b005b600260009054906101000a900473ffffffffffffffffffffffffffffffffffffffff1673ffffffffffffffffffffffffffffffffffffffff163373ffffffffffffffffffffffffffffffffffffffff16146104ab576040517f08c379a00000000000000000000000000000000000000000000000000000000081526004016104a29061156e565b60405180910390fd5b6000600654116104f0576040517f08c379a00000000000000000000000000000000000000000000000000000000081526004016104e7906115da565b60405180910390fd5b60008173ffffffffffffffffffffffffffffffffffffffff166006546040516105189061162b565b60006040518083038185875af1925050503d8060008114610555576040519150601f19603f3d011682016040523d82523d6000602084013e61055a565b606091505b505090508061059e576040517f08c379a00000000000000000000000000000000000000000000000000000000081526004016105959061168c565b60405180910390fd5b60006006819055505050565b60065481565b600881815481106105c057600080fd5b906000526020600020016000915090505481565b600260009054906101000a900473ffffffffffffffffffffffffffffffffffffffff1681565b600760019054906101000a900460ff1681565b600160009054906101000a900473ffffffffffffffffffffffffffffffffffffffff1673ffffffffffffffffffffffffffffffffffffffff163373ffffffffffffffffffffffffffffffffffffffff161461069d576040517f08c379a0000000000000000000000000000000000000000000000000000000008152600401610694906116f8565b60405180910390fd5b6000600654476106ad9190611747565b116106ed576040517f08c379a00000000000000000000000000000000000000000000000000000000081526004016106e4906117c7565b60405180910390fd5b6000600654476106fd9190611747565b905060008273ffffffffffffffffffffffffffffffffffffffff16826040516107259061162b565b60006040518083038185875af1925050503d8060008114610762576040519150601f19603f3d011682016040523d82523d6000602084013e610767565b606091505b50509050806107ab576040517f08c379a00000000000000000000000000000000000000000000000000000000081526004016107a29061168c565b60405180910390fd5b505050565b60045481565b600760009054906101000a900460ff1681565b600160009054906101000a900473ffffffffffffffffffffffffffffffffffffffff1673ffffffffffffffffffffffffffffffffffffffff163373ffffffffffffffffffffffffffffffffffffffff1614610859576040517f08c379a0000000000000000000000000000000000000000000000000000000008152600401610850906116f8565b60405180910390fd5b80600360006101000a81548173ffffffffffffffffffffffffffffffffffffffff021916908373ffffffffffffffffffffffffffffffffffffffff16021790555050565b600360009054906101000a900473ffffffffffffffffffffffffffffffffffffffff1681565b600160009054906101000a900473ffffffffffffffffffffffffffffffffffffffff1673ffffffffffffffffffffffffffffffffffffffff163373ffffffffffffffffffffffffffffffffffffffff1614610953576040517f08c379a000000000000000000000000000000000000000000000000000000000815260040161094a906116f8565b60405180910390fd5b8060048190555050565b600160009054906101000a900473ffffffffffffffffffffffffffffffffffffffff1681565b600260009054906101000a900473ffffffffffffffffffffffffffffffffffffffff1673ffffffffffffffffffffffffffffffffffffffff163373ffffffffffffffffffffffffffffffffffffffff1614610a13576040517f08c379a0000000000000000000000000000000000000000000000000000000008152600401610a0a9061156e565b60405180910390fd5b8060058190555050565b600760019054906101000a900460ff1615610a6d576040517f08c379a0000000000000000000000000000000000000000000000000000000008152600401610a6490611833565b60405180910390fd5b34670de0b6b3a764000060045483610a859190611853565b610a8f91906118dc565b14610acf576040517f08c379a0000000000000000000000000000000000000000000000000000000008152600401610ac690611959565b60405180910390fd5b8060008054906101000a900473ffffffffffffffffffffffffffffffffffffffff1673ffffffffffffffffffffffffffffffffffffffff1663dd62ed3e600160009054906101000a900473ffffffffffffffffffffffffffffffffffffffff16306040518363ffffffff1660e01b8152600401610b4d929190611979565b602060405180830381865afa158015610b6a573d6000803e3d6000fd5b505050506040513d601f19601f82011682018060405250810190610b8e91906119b7565b1015610bcf576040517f08c379a0000000000000000000000000000000000000000000000000000000008152600401610bc690611a56565b60405180910390fd5b61271060055434610be09190611853565b610bea91906118dc565b60066000828254610bfb9190611a76565b92505081905550600760009054906101000a900460ff168015610c3d57506008600081548110610c2e57610c2d611acc565b5b90600052602060002001543410155b15610d16576000600190505b600880549050811015610d14573460088281548110610c6b57610c6a611acc565b5b90600052602060002001541115610cba57606460096000600184610c8f9190611747565b81526020019081526020016000205483610ca99190611853565b610cb391906118dc565b9150610d14565b6001600880549050610ccc9190611747565b811415610d01576064600960008381526020019081526020016000205483610cf49190611853565b610cfe91906118dc565b91505b8080610d0c90611afb565b915050610c49565b505b60008054906101000a900473ffffffffffffffffffffffffffffffffffffffff1673ffffffffffffffffffffffffffffffffffffffff166323b872dd600360009054906101000a900473ffffffffffffffffffffffffffffffffffffffff1633846040518463ffffffff1660e01b8152600401610d9593929190611b44565b6020604051808303816000875af1158015610db4573d6000803e3d6000fd5b505050506040513d601f19601f82011682018060405250810190610dd89190611b90565b507f0f6798a560793a54c3bcfe86a93cde1e73087d944c0ea20544137d41213968853382604051610e0a929190611bbd565b60405180910390a150565b600160009054906101000a900473ffffffffffffffffffffffffffffffffffffffff1673ffffffffffffffffffffffffffffffffffffffff163373ffffffffffffffffffffffffffffffffffffffff1614610ea5576040517f08c379a0000000000000000000000000000000000000000000000000000000008152600401610e9c906116f8565b60405180910390fd5b8151815114610ee9576040517f08c379a0000000000000000000000000000000000000000000000000000000008152600401610ee090611c58565b60405180910390fd5b600760009054906101000a900460ff1615610f1e576000600760006101000a81548160ff021916908315150217905550611022565b600082511115610fbd576001600760006101000a81548160ff0219169083151502179055508160089080519060200190610f599291906110f1565b5060005b8251811015610fb7576064828281518110610f7b57610f7a611acc565b5b6020026020010151610f8d9190611a76565b60096000838152602001908152602001600020819055508080610faf90611afb565b915050610f5d565b50611021565b600060088054905011611005576040517f08c379a0000000000000000000000000000000000000000000000000000000008152600401610ffc90611cea565b60405180910390fd5b6001600760006101000a81548160ff0219169083151502179055505b5b5050565b60055481565b60096020528060005260406000206000915090505481565b600160009054906101000a900473ffffffffffffffffffffffffffffffffffffffff1673ffffffffffffffffffffffffffffffffffffffff163373ffffffffffffffffffffffffffffffffffffffff16146110d4576040517f08c379a00000000000000000000000000000000000000000000000000000000081526004016110cb906116f8565b60405180910390fd5b80600760016101000a81548160ff02191690831515021790555050565b82805482825590600052602060002090810192821561112d579160200282015b8281111561112c578251825591602001919060010190611111565b5b50905061113a919061113e565b5090565b5b8082111561115757600081600090555060010161113f565b5090565b6000604051905090565b600080fd5b600080fd5b600073ffffffffffffffffffffffffffffffffffffffff82169050919050565b600061119a8261116f565b9050919050565b6111aa8161118f565b81146111b557600080fd5b50565b6000813590506111c7816111a1565b92915050565b6000602082840312156111e3576111e2611165565b5b60006111f1848285016111b8565b91505092915050565b6000819050919050565b61120d816111fa565b82525050565b60006020820190506112286000830184611204565b92915050565b611237816111fa565b811461124257600080fd5b50565b6000813590506112548161122e565b92915050565b6000602082840312156112705761126f611165565b5b600061127e84828501611245565b91505092915050565b6112908161118f565b82525050565b60006020820190506112ab6000830184611287565b92915050565b60008115159050919050565b6112c6816112b1565b82525050565b60006020820190506112e160008301846112bd565b92915050565b600080fd5b6000601f19601f8301169050919050565b7f4e487b7100000000000000000000000000000000000000000000000000000000600052604160045260246000fd5b611335826112ec565b810181811067ffffffffffffffff82111715611354576113536112fd565b5b80604052505050565b600061136761115b565b9050611373828261132c565b919050565b600067ffffffffffffffff821115611393576113926112fd565b5b602082029050602081019050919050565b600080fd5b60006113bc6113b784611378565b61135d565b905080838252602082019050602084028301858111156113df576113de6113a4565b5b835b8181101561140857806113f48882611245565b8452602084019350506020810190506113e1565b5050509392505050565b600082601f830112611427576114266112e7565b5b81356114378482602086016113a9565b91505092915050565b6000806040838503121561145757611456611165565b5b600083013567ffffffffffffffff8111156114755761147461116a565b5b61148185828601611412565b925050602083013567ffffffffffffffff8111156114a2576114a161116a565b5b6114ae85828601611412565b9150509250929050565b6114c1816112b1565b81146114cc57600080fd5b50565b6000813590506114de816114b8565b92915050565b6000602082840312156114fa576114f9611165565b5b6000611508848285016114cf565b91505092915050565b600082825260208201905092915050565b7f46756e6374696f6e205265737472696374656420746f204f70657261746f7200600082015250565b6000611558601f83611511565b915061156382611522565b602082019050919050565b600060208201905081810360008301526115878161154b565b9050919050565b7f4e6f20666565732070656e64696e670000000000000000000000000000000000600082015250565b60006115c4600f83611511565b91506115cf8261158e565b602082019050919050565b600060208201905081810360008301526115f3816115b7565b9050919050565b600081905092915050565b50565b60006116156000836115fa565b915061162082611605565b600082019050919050565b600061163682611608565b9150819050919050565b7f4661696c656420746f205472616e736665720000000000000000000000000000600082015250565b6000611676601283611511565b915061168182611640565b602082019050919050565b600060208201905081810360008301526116a581611669565b9050919050565b7f46756e6374696f6e205265737472696374656420746f204f776e657200000000600082015250565b60006116e2601c83611511565b91506116ed826116ac565b602082019050919050565b60006020820190508181036000830152611711816116d5565b9050919050565b7f4e487b7100000000000000000000000000000000000000000000000000000000600052601160045260246000fd5b6000611752826111fa565b915061175d836111fa565b9250828210156117705761176f611718565b5b828203905092915050565b7f4e6f2070726f63656564732070656e64696e6700000000000000000000000000600082015250565b60006117b1601383611511565b91506117bc8261177b565b602082019050919050565b600060208201905081810360008301526117e0816117a4565b9050919050565b7f4d696e7420697320506175736564000000000000000000000000000000000000600082015250565b600061181d600e83611511565b9150611828826117e7565b602082019050919050565b6000602082019050818103600083015261184c81611810565b9050919050565b600061185e826111fa565b9150611869836111fa565b9250817fffffffffffffffffffffffffffffffffffffffffffffffffffffffffffffffff04831182151516156118a2576118a1611718565b5b828202905092915050565b7f4e487b7100000000000000000000000000000000000000000000000000000000600052601260045260246000fd5b60006118e7826111fa565b91506118f2836111fa565b925082611902576119016118ad565b5b828204905092915050565b7f496e636f72726563742056616c75650000000000000000000000000000000000600082015250565b6000611943600f83611511565b915061194e8261190d565b602082019050919050565b6000602082019050818103600083015261197281611936565b9050919050565b600060408201905061198e6000830185611287565b61199b6020830184611287565b9392505050565b6000815190506119b18161122e565b92915050565b6000602082840312156119cd576119cc611165565b5b60006119db848285016119a2565b91505092915050565b7f4d696e7420636170706564206f72206861736e74206265656e20617070726f7660008201527f6564000000000000000000000000000000000000000000000000000000000000602082015250565b6000611a40602283611511565b9150611a4b826119e4565b604082019050919050565b60006020820190508181036000830152611a6f81611a33565b9050919050565b6000611a81826111fa565b9150611a8c836111fa565b9250827fffffffffffffffffffffffffffffffffffffffffffffffffffffffffffffffff03821115611ac157611ac0611718565b5b828201905092915050565b7f4e487b7100000000000000000000000000000000000000000000000000000000600052603260045260246000fd5b6000611b06826111fa565b91507fffffffffffffffffffffffffffffffffffffffffffffffffffffffffffffffff821415611b3957611b38611718565b5b600182019050919050565b6000606082019050611b596000830186611287565b611b666020830185611287565b611b736040830184611204565b949350505050565b600081519050611b8a816114b8565b92915050565b600060208284031215611ba657611ba5611165565b5b6000611bb484828501611b7b565b91505092915050565b6000604082019050611bd26000830185611287565b611bdf6020830184611204565b9392505050565b7f4d75737420696e636c7564652076616c75657320666f7220616c6c20626f6f7360008201527f74206c6576656c73000000000000000000000000000000000000000000000000602082015250565b6000611c42602883611511565b9150611c4d82611be6565b604082019050919050565b60006020820190508181036000830152611c7181611c35565b9050919050565b7f4d7573742070617373206c6576656c7320616e6420616d6f756e747320746f2060008201527f656e61626c650000000000000000000000000000000000000000000000000000602082015250565b6000611cd4602683611511565b9150611cdf82611c78565b604082019050919050565b60006020820190508181036000830152611d0381611cc7565b905091905056fea2646970667358221220e0f2f91468cccde08dfcaff1c052ca141065132c933a3a3b17e7f2277204c6b664736f6c634300080c0033a264697066735822122082242a4e54fb5c86c093862fb0aa7673556e5ae35670cf53116ea314fab534f564736f6c634300080c0033",
  "immutableReferences": {},
  "source": "// SPDX-License-Identifier: MIT\npragma solidity >=0.4.22 <0.9.0;\n\nimport \"./TokenMint.sol\";\n\ncontract MintFactory {\n  address public factoryOwner;\n  mapping(address => address) private mintAddresses;\n\n  constructor() {\n    factoryOwner = msg.sender;\n  }\n\n  function createNewMint(address token, address tokenSource, uint256 mintPrice) external returns(address){\n    require(mintAddresses[token] == address(0), \"cannot create another mint for this token\");\n    TokenMint mintContract = new TokenMint(msg.sender, factoryOwner, mintPrice, token, tokenSource);\n\n    mintAddresses[token] = address(mintContract);\n    return address(mintContract);\n  }\n\n  function getMintAddress(address tokenAddr) external view returns(address){\n    return mintAddresses[tokenAddr];\n  }\n\n  function transferFactory(address newOwner) external {\n    require(msg.sender == factoryOwner, \"Not Authorized\");\n    factoryOwner = newOwner;\n  }\n}\n",
  "sourcePath": "C:\\Users\\Ian\\DAOHQ-MintFactory\\contracts\\MintFactory.sol",
  "compiler": {
    "name": "solc",
    "version": "0.8.12+commit.f00d7308.Emscripten.clang"
  },
  "schemaVersion": "3.4.6",
  "updatedAt": "2022-07-13T19:36:11.383Z",
  "networkType": "ethereum",
  "devdoc": {
    "kind": "dev",
    "methods": {},
    "version": 1
  },
  "userdoc": {
    "kind": "user",
    "methods": {},
    "version": 1
  }
}