{
  "contractName": "TokenMint",
  "abi": [
    {
      "inputs": [
        {
          "internalType": "address",
          "name": "_owner",
          "type": "address"
        },
        {
          "internalType": "address",
          "name": "_operator",
          "type": "address"
        },
        {
          "internalType": "uint256",
          "name": "_mintPrice",
          "type": "uint256"
        },
        {
          "internalType": "address",
          "name": "_token",
          "type": "address"
        },
        {
          "internalType": "address",
          "name": "_tokenSource",
          "type": "address"
        }
      ],
      "stateMutability": "nonpayable",
      "type": "constructor"
    },
    {
      "anonymous": false,
      "inputs": [
        {
          "indexed": false,
          "internalType": "address",
          "name": "user",
          "type": "address"
        },
        {
          "indexed": false,
          "internalType": "uint256",
          "name": "amountMinted",
          "type": "uint256"
        },
        {
          "indexed": false,
          "internalType": "uint256",
          "name": "mintPrice",
          "type": "uint256"
        }
      ],
      "name": "Mint",
      "type": "event"
    },
    {
      "stateMutability": "payable",
      "type": "fallback"
    },
    {
      "inputs": [
        {
          "internalType": "uint256",
          "name": "",
          "type": "uint256"
        }
      ],
      "name": "boostAmounts",
      "outputs": [
        {
          "internalType": "uint256",
          "name": "",
          "type": "uint256"
        }
      ],
      "stateMutability": "view",
      "type": "function"
    },
    {
      "inputs": [],
      "name": "boostEnabled",
      "outputs": [
        {
          "internalType": "bool",
          "name": "",
          "type": "bool"
        }
      ],
      "stateMutability": "view",
      "type": "function"
    },
    {
      "inputs": [
        {
          "internalType": "uint256",
          "name": "",
          "type": "uint256"
        }
      ],
      "name": "boostLevels",
      "outputs": [
        {
          "internalType": "uint256",
          "name": "",
          "type": "uint256"
        }
      ],
      "stateMutability": "view",
      "type": "function"
    },
    {
      "inputs": [],
      "name": "fee",
      "outputs": [
        {
          "internalType": "uint256",
          "name": "",
          "type": "uint256"
        }
      ],
      "stateMutability": "view",
      "type": "function"
    },
    {
      "inputs": [],
      "name": "feesPending",
      "outputs": [
        {
          "internalType": "uint256",
          "name": "",
          "type": "uint256"
        }
      ],
      "stateMutability": "view",
      "type": "function"
    },
    {
      "inputs": [],
      "name": "mintPrice",
      "outputs": [
        {
          "internalType": "uint256",
          "name": "",
          "type": "uint256"
        }
      ],
      "stateMutability": "view",
      "type": "function"
    },
    {
      "inputs": [],
      "name": "operator",
      "outputs": [
        {
          "internalType": "address",
          "name": "",
          "type": "address"
        }
      ],
      "stateMutability": "view",
      "type": "function"
    },
    {
      "inputs": [],
      "name": "owner",
      "outputs": [
        {
          "internalType": "address",
          "name": "",
          "type": "address"
        }
      ],
      "stateMutability": "view",
      "type": "function"
    },
    {
      "inputs": [],
      "name": "paused",
      "outputs": [
        {
          "internalType": "bool",
          "name": "",
          "type": "bool"
        }
      ],
      "stateMutability": "view",
      "type": "function"
    },
    {
      "inputs": [],
      "name": "tokenSource",
      "outputs": [
        {
          "internalType": "address",
          "name": "",
          "type": "address"
        }
      ],
      "stateMutability": "view",
      "type": "function"
    },
    {
      "stateMutability": "payable",
      "type": "receive"
    },
    {
      "inputs": [
        {
          "internalType": "uint256",
          "name": "amount",
          "type": "uint256"
        }
      ],
      "name": "mint",
      "outputs": [],
      "stateMutability": "payable",
      "type": "function"
    },
    {
      "inputs": [
        {
          "internalType": "address",
          "name": "to",
          "type": "address"
        }
      ],
      "name": "withdrawProceeds",
      "outputs": [],
      "stateMutability": "nonpayable",
      "type": "function"
    },
    {
      "inputs": [
        {
          "internalType": "address",
          "name": "to",
          "type": "address"
        }
      ],
      "name": "withdrawFees",
      "outputs": [],
      "stateMutability": "nonpayable",
      "type": "function"
    },
    {
      "inputs": [
        {
          "internalType": "uint256[]",
          "name": "_boostLevels",
          "type": "uint256[]"
        },
        {
          "internalType": "uint256[]",
          "name": "_boostAmounts",
          "type": "uint256[]"
        }
      ],
      "name": "enableDisableBoost",
      "outputs": [],
      "stateMutability": "nonpayable",
      "type": "function"
    },
    {
      "inputs": [
        {
          "internalType": "uint256",
          "name": "newPrice",
          "type": "uint256"
        }
      ],
      "name": "updatePrice",
      "outputs": [],
      "stateMutability": "nonpayable",
      "type": "function"
    },
    {
      "inputs": [
        {
          "internalType": "uint256",
          "name": "newFee",
          "type": "uint256"
        }
      ],
      "name": "updateFee",
      "outputs": [],
      "stateMutability": "nonpayable",
      "type": "function"
    },
    {
      "inputs": [
        {
          "internalType": "bool",
          "name": "_isPaused",
          "type": "bool"
        }
      ],
      "name": "updatePause",
      "outputs": [],
      "stateMutability": "nonpayable",
      "type": "function"
    },
    {
      "inputs": [
        {
          "internalType": "address",
          "name": "source",
          "type": "address"
        }
      ],
      "name": "updateTokenSource",
      "outputs": [],
      "stateMutability": "nonpayable",
      "type": "function"
    }
  ],
  "bytecode": "0x608060405261019060055560006006556000600760006101000a81548160ff0219169083151502179055503480156200003757600080fd5b50604051620020093803806200200983398181016040528101906200005d919062000217565b84600160006101000a81548173ffffffffffffffffffffffffffffffffffffffff021916908373ffffffffffffffffffffffffffffffffffffffff16021790555083600260006101000a81548173ffffffffffffffffffffffffffffffffffffffff021916908373ffffffffffffffffffffffffffffffffffffffff16021790555082600481905550816000806101000a81548173ffffffffffffffffffffffffffffffffffffffff021916908373ffffffffffffffffffffffffffffffffffffffff16021790555080600360006101000a81548173ffffffffffffffffffffffffffffffffffffffff021916908373ffffffffffffffffffffffffffffffffffffffff16021790555050505050506200029f565b600080fd5b600073ffffffffffffffffffffffffffffffffffffffff82169050919050565b6000620001a48262000177565b9050919050565b620001b68162000197565b8114620001c257600080fd5b50565b600081519050620001d681620001ab565b92915050565b6000819050919050565b620001f181620001dc565b8114620001fd57600080fd5b50565b6000815190506200021181620001e6565b92915050565b600080600080600060a0868803121562000236576200023562000172565b5b60006200024688828901620001c5565b95505060206200025988828901620001c5565b94505060406200026c8882890162000200565b93505060606200027f88828901620001c5565b92505060806200029288828901620001c5565b9150509295509295909350565b611d5a80620002af6000396000f3fe60806040526004361061010d5760003560e01c80638cec13b811610095578063a0712d6811610064578063a0712d681461034d578063a13a58ab14610369578063ddca3f4314610392578063e5327094146103bd578063f8974de0146103fa57610114565b80638cec13b8146102a55780638d6cc56d146102d05780638da5cb5b146102f95780639012c4a81461032457610114565b80635c975abb116100dc5780635c975abb146101d257806362810c81146101fd5780636817c76c1461022657806380a9f28e146102515780638393530f1461027c57610114565b8063164e68de14610116578063320113cd1461013f57806346a0f31c1461016a578063570ca735146101a757610114565b3661011457005b005b34801561012257600080fd5b5061013d600480360381019061013891906111d9565b610423565b005b34801561014b57600080fd5b506101546105b2565b604051610161919061121f565b60405180910390f35b34801561017657600080fd5b50610191600480360381019061018c9190611266565b6105b8565b60405161019e919061121f565b60405180910390f35b3480156101b357600080fd5b506101bc6105dc565b6040516101c991906112a2565b60405180910390f35b3480156101de57600080fd5b506101e7610602565b6040516101f491906112d8565b60405180910390f35b34801561020957600080fd5b50610224600480360381019061021f91906111d9565b610615565b005b34801561023257600080fd5b5061023b6107b8565b604051610248919061121f565b60405180910390f35b34801561025d57600080fd5b506102666107be565b60405161027391906112d8565b60405180910390f35b34801561028857600080fd5b506102a3600480360381019061029e91906111d9565b6107d1565b005b3480156102b157600080fd5b506102ba6108a5565b6040516102c791906112a2565b60405180910390f35b3480156102dc57600080fd5b506102f760048036038101906102f29190611266565b6108cb565b005b34801561030557600080fd5b5061030e610965565b60405161031b91906112a2565b60405180910390f35b34801561033057600080fd5b5061034b60048036038101906103469190611266565b61098b565b005b61036760048036038101906103629190611266565b610a25565b005b34801561037557600080fd5b50610390600480360381019061038b919061144c565b610e21565b005b34801561039e57600080fd5b506103a7611032565b6040516103b4919061121f565b60405180910390f35b3480156103c957600080fd5b506103e460048036038101906103df9190611266565b611038565b6040516103f1919061121f565b60405180910390f35b34801561040657600080fd5b50610421600480360381019061041c91906114f0565b611050565b005b600260009054906101000a900473ffffffffffffffffffffffffffffffffffffffff1673ffffffffffffffffffffffffffffffffffffffff163373ffffffffffffffffffffffffffffffffffffffff16146104b3576040517f08c379a00000000000000000000000000000000000000000000000000000000081526004016104aa9061157a565b60405180910390fd5b6000600654116104f8576040517f08c379a00000000000000000000000000000000000000000000000000000000081526004016104ef906115e6565b60405180910390fd5b60008173ffffffffffffffffffffffffffffffffffffffff1660065460405161052090611637565b60006040518083038185875af1925050503d806000811461055d576040519150601f19603f3d011682016040523d82523d6000602084013e610562565b606091505b50509050806105a6576040517f08c379a000000000000000000000000000000000000000000000000000000000815260040161059d90611698565b60405180910390fd5b60006006819055505050565b60065481565b600881815481106105c857600080fd5b906000526020600020016000915090505481565b600260009054906101000a900473ffffffffffffffffffffffffffffffffffffffff1681565b600760019054906101000a900460ff1681565b600160009054906101000a900473ffffffffffffffffffffffffffffffffffffffff1673ffffffffffffffffffffffffffffffffffffffff163373ffffffffffffffffffffffffffffffffffffffff16146106a5576040517f08c379a000000000000000000000000000000000000000000000000000000000815260040161069c90611704565b60405180910390fd5b6000600654476106b59190611753565b116106f5576040517f08c379a00000000000000000000000000000000000000000000000000000000081526004016106ec906117d3565b60405180910390fd5b6000600654476107059190611753565b905060008273ffffffffffffffffffffffffffffffffffffffff168260405161072d90611637565b60006040518083038185875af1925050503d806000811461076a576040519150601f19603f3d011682016040523d82523d6000602084013e61076f565b606091505b50509050806107b3576040517f08c379a00000000000000000000000000000000000000000000000000000000081526004016107aa90611698565b60405180910390fd5b505050565b60045481565b600760009054906101000a900460ff1681565b600160009054906101000a900473ffffffffffffffffffffffffffffffffffffffff1673ffffffffffffffffffffffffffffffffffffffff163373ffffffffffffffffffffffffffffffffffffffff1614610861576040517f08c379a000000000000000000000000000000000000000000000000000000000815260040161085890611704565b60405180910390fd5b80600360006101000a81548173ffffffffffffffffffffffffffffffffffffffff021916908373ffffffffffffffffffffffffffffffffffffffff16021790555050565b600360009054906101000a900473ffffffffffffffffffffffffffffffffffffffff1681565b600160009054906101000a900473ffffffffffffffffffffffffffffffffffffffff1673ffffffffffffffffffffffffffffffffffffffff163373ffffffffffffffffffffffffffffffffffffffff161461095b576040517f08c379a000000000000000000000000000000000000000000000000000000000815260040161095290611704565b60405180910390fd5b8060048190555050565b600160009054906101000a900473ffffffffffffffffffffffffffffffffffffffff1681565b600260009054906101000a900473ffffffffffffffffffffffffffffffffffffffff1673ffffffffffffffffffffffffffffffffffffffff163373ffffffffffffffffffffffffffffffffffffffff1614610a1b576040517f08c379a0000000000000000000000000000000000000000000000000000000008152600401610a129061157a565b60405180910390fd5b8060058190555050565b600760019054906101000a900460ff1615610a75576040517f08c379a0000000000000000000000000000000000000000000000000000000008152600401610a6c9061183f565b60405180910390fd5b34670de0b6b3a764000060045483610a8d919061185f565b610a9791906118e8565b14610ad7576040517f08c379a0000000000000000000000000000000000000000000000000000000008152600401610ace90611965565b60405180910390fd5b8060008054906101000a900473ffffffffffffffffffffffffffffffffffffffff1673ffffffffffffffffffffffffffffffffffffffff1663dd62ed3e600160009054906101000a900473ffffffffffffffffffffffffffffffffffffffff16306040518363ffffffff1660e01b8152600401610b55929190611985565b602060405180830381865afa158015610b72573d6000803e3d6000fd5b505050506040513d601f19601f82011682018060405250810190610b9691906119c3565b1015610bd7576040517f08c379a0000000000000000000000000000000000000000000000000000000008152600401610bce90611a62565b60405180910390fd5b61271060055434610be8919061185f565b610bf291906118e8565b60066000828254610c039190611a82565b92505081905550600760009054906101000a900460ff168015610c4557506008600081548110610c3657610c35611ad8565b5b90600052602060002001543410155b15610d1e576000600190505b600880549050811015610d1c573460088281548110610c7357610c72611ad8565b5b90600052602060002001541115610cc257606460096000600184610c979190611753565b81526020019081526020016000205483610cb1919061185f565b610cbb91906118e8565b9150610d1c565b6001600880549050610cd49190611753565b811415610d09576064600960008381526020019081526020016000205483610cfc919061185f565b610d0691906118e8565b91505b8080610d1490611b07565b915050610c51565b505b60008054906101000a900473ffffffffffffffffffffffffffffffffffffffff1673ffffffffffffffffffffffffffffffffffffffff166323b872dd600360009054906101000a900473ffffffffffffffffffffffffffffffffffffffff1633846040518463ffffffff1660e01b8152600401610d9d93929190611b50565b6020604051808303816000875af1158015610dbc573d6000803e3d6000fd5b505050506040513d601f19601f82011682018060405250810190610de09190611b9c565b507f4c209b5fc8ad50758f13e2e1088ba56a560dff690a1c6fef26394f4c03821c4f3382600454604051610e1693929190611bc9565b60405180910390a150565b600160009054906101000a900473ffffffffffffffffffffffffffffffffffffffff1673ffffffffffffffffffffffffffffffffffffffff163373ffffffffffffffffffffffffffffffffffffffff1614610eb1576040517f08c379a0000000000000000000000000000000000000000000000000000000008152600401610ea890611704565b60405180910390fd5b8151815114610ef5576040517f08c379a0000000000000000000000000000000000000000000000000000000008152600401610eec90611c72565b60405180910390fd5b600760009054906101000a900460ff1615610f2a576000600760006101000a81548160ff02191690831515021790555061102e565b600082511115610fc9576001600760006101000a81548160ff0219169083151502179055508160089080519060200190610f659291906110fd565b5060005b8251811015610fc3576064828281518110610f8757610f86611ad8565b5b6020026020010151610f999190611a82565b60096000838152602001908152602001600020819055508080610fbb90611b07565b915050610f69565b5061102d565b600060088054905011611011576040517f08c379a000000000000000000000000000000000000000000000000000000000815260040161100890611d04565b60405180910390fd5b6001600760006101000a81548160ff0219169083151502179055505b5b5050565b60055481565b60096020528060005260406000206000915090505481565b600160009054906101000a900473ffffffffffffffffffffffffffffffffffffffff1673ffffffffffffffffffffffffffffffffffffffff163373ffffffffffffffffffffffffffffffffffffffff16146110e0576040517f08c379a00000000000000000000000000000000000000000000000000000000081526004016110d790611704565b60405180910390fd5b80600760016101000a81548160ff02191690831515021790555050565b828054828255906000526020600020908101928215611139579160200282015b8281111561113857825182559160200191906001019061111d565b5b509050611146919061114a565b5090565b5b8082111561116357600081600090555060010161114b565b5090565b6000604051905090565b600080fd5b600080fd5b600073ffffffffffffffffffffffffffffffffffffffff82169050919050565b60006111a68261117b565b9050919050565b6111b68161119b565b81146111c157600080fd5b50565b6000813590506111d3816111ad565b92915050565b6000602082840312156111ef576111ee611171565b5b60006111fd848285016111c4565b91505092915050565b6000819050919050565b61121981611206565b82525050565b60006020820190506112346000830184611210565b92915050565b61124381611206565b811461124e57600080fd5b50565b6000813590506112608161123a565b92915050565b60006020828403121561127c5761127b611171565b5b600061128a84828501611251565b91505092915050565b61129c8161119b565b82525050565b60006020820190506112b76000830184611293565b92915050565b60008115159050919050565b6112d2816112bd565b82525050565b60006020820190506112ed60008301846112c9565b92915050565b600080fd5b6000601f19601f8301169050919050565b7f4e487b7100000000000000000000000000000000000000000000000000000000600052604160045260246000fd5b611341826112f8565b810181811067ffffffffffffffff821117156113605761135f611309565b5b80604052505050565b6000611373611167565b905061137f8282611338565b919050565b600067ffffffffffffffff82111561139f5761139e611309565b5b602082029050602081019050919050565b600080fd5b60006113c86113c384611384565b611369565b905080838252602082019050602084028301858111156113eb576113ea6113b0565b5b835b8181101561141457806114008882611251565b8452602084019350506020810190506113ed565b5050509392505050565b600082601f830112611433576114326112f3565b5b81356114438482602086016113b5565b91505092915050565b6000806040838503121561146357611462611171565b5b600083013567ffffffffffffffff81111561148157611480611176565b5b61148d8582860161141e565b925050602083013567ffffffffffffffff8111156114ae576114ad611176565b5b6114ba8582860161141e565b9150509250929050565b6114cd816112bd565b81146114d857600080fd5b50565b6000813590506114ea816114c4565b92915050565b60006020828403121561150657611505611171565b5b6000611514848285016114db565b91505092915050565b600082825260208201905092915050565b7f46756e6374696f6e205265737472696374656420746f204f70657261746f7200600082015250565b6000611564601f8361151d565b915061156f8261152e565b602082019050919050565b6000602082019050818103600083015261159381611557565b9050919050565b7f4e6f20666565732070656e64696e670000000000000000000000000000000000600082015250565b60006115d0600f8361151d565b91506115db8261159a565b602082019050919050565b600060208201905081810360008301526115ff816115c3565b9050919050565b600081905092915050565b50565b6000611621600083611606565b915061162c82611611565b600082019050919050565b600061164282611614565b9150819050919050565b7f4661696c656420746f205472616e736665720000000000000000000000000000600082015250565b600061168260128361151d565b915061168d8261164c565b602082019050919050565b600060208201905081810360008301526116b181611675565b9050919050565b7f46756e6374696f6e205265737472696374656420746f204f776e657200000000600082015250565b60006116ee601c8361151d565b91506116f9826116b8565b602082019050919050565b6000602082019050818103600083015261171d816116e1565b9050919050565b7f4e487b7100000000000000000000000000000000000000000000000000000000600052601160045260246000fd5b600061175e82611206565b915061176983611206565b92508282101561177c5761177b611724565b5b828203905092915050565b7f4e6f2070726f63656564732070656e64696e6700000000000000000000000000600082015250565b60006117bd60138361151d565b91506117c882611787565b602082019050919050565b600060208201905081810360008301526117ec816117b0565b9050919050565b7f4d696e7420697320506175736564000000000000000000000000000000000000600082015250565b6000611829600e8361151d565b9150611834826117f3565b602082019050919050565b600060208201905081810360008301526118588161181c565b9050919050565b600061186a82611206565b915061187583611206565b9250817fffffffffffffffffffffffffffffffffffffffffffffffffffffffffffffffff04831182151516156118ae576118ad611724565b5b828202905092915050565b7f4e487b7100000000000000000000000000000000000000000000000000000000600052601260045260246000fd5b60006118f382611206565b91506118fe83611206565b92508261190e5761190d6118b9565b5b828204905092915050565b7f496e636f72726563742056616c75650000000000000000000000000000000000600082015250565b600061194f600f8361151d565b915061195a82611919565b602082019050919050565b6000602082019050818103600083015261197e81611942565b9050919050565b600060408201905061199a6000830185611293565b6119a76020830184611293565b9392505050565b6000815190506119bd8161123a565b92915050565b6000602082840312156119d9576119d8611171565b5b60006119e7848285016119ae565b91505092915050565b7f4d696e7420636170706564206f72206861736e74206265656e20617070726f7660008201527f6564000000000000000000000000000000000000000000000000000000000000602082015250565b6000611a4c60228361151d565b9150611a57826119f0565b604082019050919050565b60006020820190508181036000830152611a7b81611a3f565b9050919050565b6000611a8d82611206565b9150611a9883611206565b9250827fffffffffffffffffffffffffffffffffffffffffffffffffffffffffffffffff03821115611acd57611acc611724565b5b828201905092915050565b7f4e487b7100000000000000000000000000000000000000000000000000000000600052603260045260246000fd5b6000611b1282611206565b91507fffffffffffffffffffffffffffffffffffffffffffffffffffffffffffffffff821415611b4557611b44611724565b5b600182019050919050565b6000606082019050611b656000830186611293565b611b726020830185611293565b611b7f6040830184611210565b949350505050565b600081519050611b96816114c4565b92915050565b600060208284031215611bb257611bb1611171565b5b6000611bc084828501611b87565b91505092915050565b6000606082019050611bde6000830186611293565b611beb6020830185611210565b611bf86040830184611210565b949350505050565b7f4d75737420696e636c7564652076616c75657320666f7220616c6c20626f6f7360008201527f74206c6576656c73000000000000000000000000000000000000000000000000602082015250565b6000611c5c60288361151d565b9150611c6782611c00565b604082019050919050565b60006020820190508181036000830152611c8b81611c4f565b9050919050565b7f4d7573742070617373206c6576656c7320616e6420616d6f756e747320746f2060008201527f656e61626c650000000000000000000000000000000000000000000000000000602082015250565b6000611cee60268361151d565b9150611cf982611c92565b604082019050919050565b60006020820190508181036000830152611d1d81611ce1565b905091905056fea264697066735822122085b8ea061daf599158e204b0b7168d0fc256bb916a7592ab272fb0f45c5583a264736f6c634300080c0033",
  "immutableReferences": {},
  "source": "// SPDX-License-Identifier: MIT\npragma solidity >=0.4.22 <0.9.0;\n\nimport \"@openzeppelin/contracts/token/ERC20/IERC20.sol\";\n\ncontract TokenMint {\n  IERC20 mintToken;\n\n  address public owner;\n  address public operator;\n  address public tokenSource;\n  uint256 public mintPrice;\n  uint256 public fee = 400;\n  uint256 public feesPending = 0;\n  bool public boostEnabled = false;\n  bool public paused;\n  uint256[] public boostLevels;\n  mapping(uint256 => uint256) public boostAmounts;\n\n  event Mint(address user, uint256 amountMinted, uint256 mintPrice);\n\n  constructor(address _owner,\n              address _operator,\n              uint256 _mintPrice,\n              address _token,\n              address _tokenSource)\n  {\n    owner = _owner;\n    operator = _operator;\n    mintPrice = _mintPrice;\n    mintToken = IERC20(_token);\n    tokenSource = _tokenSource;\n  }\n\n  modifier isOwner(){\n    require(msg.sender == owner, \"Function Restricted to Owner\");\n    _;\n  }\n\n  modifier isOperator(){\n    require(msg.sender == operator, \"Function Restricted to Operator\");\n    _;\n  }\n\n  modifier isPaused(){\n    require(!paused, \"Mint is Paused\");\n    _;\n  }\n\n  function mint(uint256 amount) external isPaused payable{\n    require((amount * mintPrice) / 1e18 == msg.value, \"Incorrect Value\");\n    require(mintToken.allowance(owner, address(this)) >= amount, \"Mint capped or hasnt been approved\");\n    feesPending += (msg.value * fee)/10000;\n    if(boostEnabled && msg.value >= boostLevels[0]){\n      for(uint i = 1; i < boostLevels.length ; i++){\n        if(boostLevels[i] > msg.value){\n          amount = (amount * boostAmounts[i - 1]) / 100;\n          break;\n        }else if(i == boostLevels.length - 1){\n          amount = (amount * boostAmounts[i]) / 100;\n        }\n      }\n    }\n    mintToken.transferFrom(tokenSource, msg.sender, amount);\n    emit Mint(msg.sender, amount, mintPrice);\n  }\n\n  function withdrawProceeds(address to) external isOwner {\n    require(address(this).balance - feesPending > 0, \"No proceeds pending\");\n    uint amountToTransfer = address(this).balance - feesPending;\n\n    (bool sent, ) = payable(to).call{value: amountToTransfer}(\"\");\n    require(sent, \"Failed to Transfer\");\n  }\n\n  function withdrawFees(address to) external isOperator {\n    require(feesPending > 0, \"No fees pending\");\n    (bool sent, ) = payable(to).call{value: feesPending}(\"\");\n    require(sent, \"Failed to Transfer\");\n\n    feesPending = 0;\n  }\n  \n  function enableDisableBoost(uint256[] memory _boostLevels, uint256[] memory _boostAmounts) external isOwner{\n    require(_boostAmounts.length == _boostLevels.length, \"Must include values for all boost levels\");\n    if(boostEnabled){\n      boostEnabled = false;\n    }else if(_boostLevels.length > 0){\n      boostEnabled = true;\n      boostLevels = _boostLevels;\n      for(uint i = 0; i < _boostLevels.length; i++){\n        boostAmounts[i] = _boostAmounts[i] + 100;\n      }\n    }else{\n      require(boostLevels.length > 0, \"Must pass levels and amounts to enable\");\n      boostEnabled = true;\n    }\n  }\n\n  function updatePrice(uint256 newPrice) external isOwner {\n    mintPrice = newPrice;\n  }\n\n  function updateFee(uint newFee) external isOperator{\n    fee = newFee;\n  }\n\n  function updatePause(bool _isPaused) external isOwner {\n    paused = _isPaused;\n  }\n\n  function updateTokenSource(address source) external isOwner {\n    tokenSource = source;\n  }\n\n  receive() external payable {}\n\n  fallback() external payable{}\n\n}\n",
  "sourcePath": "C:\\Users\\Ian\\DAOHQ-MintFactory\\contracts\\TokenMint.sol",
  "compiler": {
    "name": "solc",
    "version": "0.8.12+commit.f00d7308.Emscripten.clang"
  },
  "schemaVersion": "3.4.6",
  "updatedAt": "2022-07-13T19:36:06.482Z",
  "devdoc": {
    "kind": "dev",
    "methods": {},
    "version": 1
  },
  "userdoc": {
    "kind": "user",
    "methods": {},
    "version": 1
  }
}